:020000040800F2
:10000000881F00200101000803230008A31D000829
:1000100001230008A902000885280008000000004C
:10002000000000000000000000000000272300087E
:1000300031040008000000002523000829230008DF
:100040001B0100081B0100081B0100081B01000820
:100050001B0100081B0100081B0100081B01000810
:100060001B0100081B0100081B0100081B01000800
:100070001B0100081B0100081B0100081B010008F0
:100080001B0100081B0100081B0100081B010008E0
:100090001B0100081B0100081B0100081B010008D0
:1000A0001B0100081B0100081B0100081B010008C0
:1000B0001B0100081B010008A92300081B01000800
:1000C0001B0100081B0100081B0100081B010008A0
:1000D0001B010008792800081B0100081B0100080B
:1000E0001B0100081B0100081B010008DFF80CD0F1
:1000F00000F032F800480047112A0008881F00204D
:100100000648804706480047FEE7FEE7FEE7FEE7B1
:10011000FEE7FEE7FEE7FEE7FEE7FEE7A5230008B1
:10012000ED000008D2B201E000F8012B491EFBD21D
:1001300070470022F6E710B513460A4604461946F2
:10014000FFF7F0FF204610BD421C10F8011B0029EC
:10015000FBD1801A70470000064C074D06E0E068AE
:1001600040F0010394E8070098471034AC42F6D3FE
:10017000FFF7C0FFA0370008C037000870B58C1823
:1001800010F8015B15F0070301D110F8013B2A11AB
:1001900006D110F8012B03E010F8016B01F8016B98
:1001A0005B1EF9D12B0705D40023521E0DD401F894
:1001B000013BFAE710F8013BCB1A921C03E013F85D
:1001C000015B01F8015B521EF9D5A142D8D3002092
:1001D00070BD000070B5044600688168C943C90756
:1001E00017D1816821F00101816000F0F7FC05461C
:1001F0000AE000BF00F0F2FC401B022804D920688E
:100200008068C043C00706D020688068C043C0072C
:10021000F0D0002070BDA06A40F01000A062E06A3B
:1002200040F00100E062012070BD0000F8B500263A
:100230000446009600688168C943C9072DD08168CB
:1002400041F001018160164816490068B0FBF1F0E9
:1002500000E0401E00900028FBD100F0BFFC0546E6
:1002600016E000BF00F0BAFC401B022810D920683D
:100270008068C043C0070BD0A06A40F01000A062A5
:10028000E06A40F00100E06284F824600120F8BDDB
:1002900020688068C043C007E4D10020F8BD00009A
:1002A0000C1A002040420F00FEE700001FB500209E
:1002B00001900290042000900320039069460248B8
:1002C00000F092FB1FBD00000008014010B500F0D7
:1002D00009F803480021017041708170C17010BDA0
:1002E000111A00201FB504200090012001900290F7
:1002F000032003906946024800F076FB1FBD000012
:100300000008014070B50024134D04E0641CE4B201
:10031000012000F091F80421284600F055FC08B1B6
:10032000642CF3D3002404E0641CE4B2012000F048
:1003300083F80421284600F047FC08B9642CF3D365
:100340001E2000F079F80421284600F03DFC00282A
:1003500000D0012070BD00000008014070B50020F1
:1003600004464006050EFFF7CDFF641C2843E4B2A7
:10037000082CF6D370BD00002DE9F0410025FFF7F1
:10038000B1FF294C01220421204600F022FC00226A
:100390000421204600F01DFC142000F04AF8FFF76D
:1003A00085FF0421204600F00FFC20B16D1C2D04B8
:1003B0002D0CF6D135E09DB30025042126462046BC
:1003C00000F002FC58B15DB300240421304600F077
:1003D000FBFB48B1641C2404240CF6D121E06D1C05
:1003E0002D042D0CE9D11CE0D4B1FFF7B7FF07466F
:1003F000FFF7B4FF0646FFF7B1FF0546FFF7AEFF74
:100400000446FFF7ABFFB91929442144814208D1C2
:1004100006488770C670057044700120BDE8F08101
:10042000FFE70020FAE7000000080140111A002051
:10043000704700F0C7BA000070B54FF0E02400220A
:1004400065690949A36909784843A1699942FCD0C3
:1004500002D2A3EB010302E0A5EB010633441A44E8
:100460000B468242F1D370BD101A002072B6FEE72F
:10047000F8B50024009490F824202546012A12D0D3
:10048000012280F824204A681F23072A0DD206681B
:10049000776B521E02EB820293409F430B6893409E
:1004A0001F43776319E00220F8BD06680D2A0AD2BF
:1004B000376BD21F02EB820293409F430B6893403D
:1004C0001F43376309E0F76A0D3A02EB820293405B
:1004D0009F430B6893401F43F7620A68072306682F
:1004E0000A2A0AD3F7680A3A02EB420293409F4372
:1004F0008B6893401F43F76008E0376902EB4202C4
:1005000093409F438B6893401F4337610A68102ACA
:1005100001D0112A20D1124B02689A4217D1936858
:100520001B0219D4936843F40003936009681029EF
:1005300012D10C490C4A0968B1FBF2F101EB8101BF
:10054000490000E0491E00910029FBD104E0816AC6
:1005500041F020018162012480F824502046F8BD3A
:10056000002401400C1A002040420F000068C06CBB
:10057000704700002DE9F0414FF0000704003D46B0
:100580007ED0A06A002628B9E66284F8246020465E
:1005900000F07EF82046FFF71DFEA16AC90600D4D0
:1005A00020B1A06A40F01000A06269E0A16A21F4C5
:1005B000885141F00201A1626268E169237B0A432C
:1005C00047EA43010A43A1684FF48077B94209D052
:1005D000012907D05FF0000194F814C0BCF1010FAD
:1005E00002D00AE03946F7E7F3B1A36A43F02003EB
:1005F000A362E36A43F00103E3622368D3F804C013
:100600002CF4694C4CEA010CC3F804C021688B68D7
:10061000DFF870C003EA0C0313438B60A168B94292
:100620000BD0012909D00CE0DFF85CC0A3690CEB0A
:1006300043330B4343F40061DFE7218A0D05A5F541
:1006400080152168CB6A23F470032B43CB622168A9
:1006500089680E4B1940914208D1E662A16A21F0E7
:10066000020141F00101A162BDE8F081A06A20F021
:10067000020040F01000A062E06A40F00100E06279
:100680000120F1E7FDF7E1FF00E0FFFFFE0E1FFF95
:1006900000B585B00021009101910291039100689D
:1006A0000E49884218D10E48816941F40071816178
:1006B000816901F400710491816941F00401816153
:1006C0008069694600F00400049002200090032035
:1006D0000190044800F088F905B000BD00240140F5
:1006E00000100240000801402DE9F84300270D46A4
:1006F0000446009700F072FA804620688168C905B8
:1007000008D5A06A40F02000A06284F8247001207F
:10071000BDE8F8834168C90503D4C06A10F4700FBE
:100720002AD0022000F0F8FA3B490968B1FBF0F644
:100730002068036939490B424FEA61014FEAA1126F
:100740001FD1C3684FEA611C13EA0C0F19D103696A
:100750000B4225D1C068104222D1142023E0681C2E
:100760000AD02DB100F03AFAA0EB0800A84203D954
:1007700020680068800725D5206800688007EED5CE
:100780002DE003690B4202D1C168114206D0026913
:1007900023490A4206D1C068084203D1542002E02E
:1007A000292000E0FC204643009816E0681C11D088
:1007B0002DB100F013FAA0EB0800A8420AD9009866
:1007C000B04207D2A06A40F00400A06284F824700E
:1007D00003209DE70098401C0090B042E6D32168BA
:1007E0006FF012000860A06A40F40070A0622068F8
:1007F0008068C0F3424007280CD1207B50B9A06A22
:1008000020F48070A062A06AC00403D4A06A40F003
:100810000100A06200207BE70C1A002024499224EA
:100820004992240070B5044690F8240001280DD0A8
:10083000012084F824002046FFF7F8FC02004FF066
:10084000000005D084F82400104670BD022070BD61
:10085000A16A40F20123994341F48071A1621F4DC6
:1008600023681F49AB4218D10E6816F4702F14D0BC
:10087000A66A46F48016A6620E68760505D5A66AB5
:1008800026F4005646F48056A662A66AF6040AD5F7
:10089000E66A26F00606E66206E0A66A26F48016F8
:1008A000A6625E68E9E7E06284F824006FF0020067
:1008B000186020688368C3F34243072B05D1A84220
:1008C00008D1096811F4702F04D0816841F48011B7
:1008D0008160B9E7816841F4A001F9E7002801408F
:1008E0000424014010B590F821100022022905D0FF
:1008F0000421816380F82020012010BD01680B686D
:1009000023F00E030B6001680B6823F001030B60FA
:1009100090F84030C46B012101FA03F3636080F862
:10092000211080F82020104610BD000010B590F86E
:1009300021100024022903D00421816301243DE019
:1009400001680A6822F00E020A6001680A6822F053
:1009500001020A601A4A0168914201D1012121E095
:10096000174A1432914201D110211BE0144A283257
:10097000914201D1891515E0114A3C32914201D1D1
:1009800089140FE00E4A5032914202D14FF4803167
:1009900008E00B4A6432914202D14FF4801101E029
:1009A0004FF08071064A083A5160012180F8211009
:1009B000002180F82010416B01B18847204610BD0E
:1009C0000800024070B5044600F008F90546601CB6
:1009D00002D004480078044400F000F9401BA04213
:1009E000FAD370BD001A00202DE9F84FDFF8B89156
:1009F0000024A9F1040B23460F2709F1040AABF1E7
:100A0000040EC9E00125A5402A40AA427DD1674EC7
:100A1000D1F804C0ACEB0608B44532D014DCBCF10C
:100A2000030F3AD009DCBCF1000F2AD0BCF1010F52
:100A30001CD0BCF1020F31D11DE0BCF1110F17D059
:100A4000BCF1120F2AD119E0B8F5881F19D006DCC5
:100A5000B8F5803F15D0B8F5801F1FD111E0B8F56B
:100A6000001F0ED0B8F5041F18D10AE0CB6815E0BE
:100A7000CB681B1D12E0CB6808330FE0CB680C334A
:100A80000CE08B682BB1012B4FF0080303D04561BC
:100A900004E0042302E0056100E00023FF2A01D8FE
:100AA000064601E000F104064FEA840501D9A5F1EC
:100AB0002005D6F8008007FA05FC28EA0C0803FA9E
:100AC00005F548EA0508C6F800804D68ED0062D5D6
:100AD000374DAE6946F00106AE61AD6924F00306FC
:100AE00005F001050095334D06EB050CDCF80850C8
:100AF000A607360F07FA06F825EA0805DFF8B880DA
:100B0000404503D14FF0000817E044E0DFF8AC8027
:100B1000404502D14FF001080FE0DFF8A4804045C6
:100B200002D14FF0020808E0DFF89880404502D17A
:100B30004FF0030801E04FF0040808FA06F848EA0D
:100B40000508CCF808804D68D9F80060ED024D46E4
:100B500001D5164300E096432E604D68DAF8006038
:100B6000AD02554601D5164300E096432E604D6810
:100B7000DBF80060AD035D4601D5164300E0964307
:100B80002E604D68DEF80060ED03754601D5164312
:100B900000E096432E60641C0D682A46E5407FF411
:100BA00031AFBDE8F88F00000804014000001110CB
:100BB000001002400000014000080140000C01400C
:100BC00000100140001401408068084000D001205E
:100BD00070470AB1016170470904FBE7014880686A
:100BE00070470000001A0020024881680278114412
:100BF00081607047001A0020074810B5016841F075
:100C000010010160032000F075F8002000F006F8E4
:100C100000F024F8002010BD0020024070B50D4DFA
:100C200004464FF47A712878B1FBF0F00A4909685C
:100C3000B1FBF0F000F0A4FB48B9102C07D2002261
:100C40002146501E00F036F800206C6070BD012077
:100C500070BD0000001A00200C1A00200C4808B5D6
:100C6000816941F001018161816901F00101009117
:100C7000C16941F08051C161C06900F080500090AD
:100C80000448416821F0E06141F00071416008BD15
:100C90000010024000000140002809DB00F01F02A4
:100CA000012191404009800000F1E020C0F80011CE
:100CB00070470000F0B40E4B1B680C46C3F30223D0
:100CC000C3F10705042D00D90425191D072901D2F8
:100CD000002300E0DB1E012606FA05F1491E214033
:100CE00099409E40761E16403143F0BC01F01CBE78
:100CF0000CED00E0064900F0070208684FF6FF031C
:100D0000184040EA0220034A104308607047000080
:100D10000CED00E00000FA0510B501460020234C60
:100D2000012922D0022939D010291DD161682268F9
:100D3000D20119D51E48C1F38342C903805C0AD58C
:100D400061681B4AC1F34041921E515C194AB2FBD3
:100D5000F1F1484301E0184948436168490203D46E
:100D600040000321B0FBF1F010BD226AC2F3012163
:100D7000012903D1920701D5C80310BD022905D16D
:100D8000626A920702D549F6404010BD0329FCD1A2
:100D900021688903F9D54FF2244010BD00F02AF9EB
:100DA0006168C1F38131491C4900DBE70010024052
:100DB0007837000800127A0000093D002DE9F84359
:100DC00005460078354CC00754D0E0690026C000C5
:100DD00008D4E06940F08050E061E069012600F04D
:100DE000805000902E480168C90512D401688046E1
:100DF00041F480710160FFF7F1FE074605E000BF96
:100E0000FFF7ECFEC01B642823D8D8F80000C0050B
:100E1000F6D5206A10F4407021D0A98801F4407101
:100E200081421CD0206A1F49012220F440700A60D0
:100E300000220A602062C00711D0FFF7CFFE0746EC
:100E400041F2883808E000BFFFF7C8FEC11B4145EA
:100E500002D90320BDE8F883206A8007F4D5206A10
:100E6000696820F44070084320621EB1E06920F0F8
:100E70008050E0612878800705D56068A96820F473
:100E80004040084360602878C00605D56068E9687E
:100E900020F48000084360600020DBE7001002407F
:100EA00000700040400442422DE9F0470F46050023
:100EB00061D0434E306800F00700B84209D2306874
:100EC00020F0070038433060306800F00700B84277
:100ED00051D128683B4C810712D5400703D5606883
:100EE00040F4E06060602878000703D5606840F453
:100EF000605060606068A96820F0F000084360609E
:100F00002878C00728D06868012810D021680228F6
:100F100010D0890700292EDA616821F0030101430E
:100F20006160FFF75BFE804641F288390DE0216881
:100F30008903EFE78901EDE7FFF750FEA0EB080119
:100F4000494502D90320BDE8F0876068696800F070
:100F50000C00B0EB810FEFD1306800F00700B84211
:100F60000BD9306820F0070038433060306800F05B
:100F70000700B84201D00120E5E72878400705D5F1
:100F80006068E96820F4E060084360602878000742
:100F900006D56068296920F4605040EAC1006060AD
:100FA00000F038F86168084AC1F30311515CC84089
:100FB0000649086006480068FFF730FE0020C2E7D7
:100FC0000020024000100240883700080C1A002060
:100FD000041A00200448054900684968044AC1F31E
:100FE0000221515CC84070470C1A002000100240DA
:100FF000983700080448054900684968044AC1F365
:10100000C221515CC84070470C1A002000100240F9
:10101000983700080E4A51680E4801F00C03042B63
:1010200011D0082B0FD10C48C1F38343C903C05C16
:101030000AD55168084AC1F34041921E515C054AE5
:101040005043B0FBF1F0704704494843704700003B
:101050000010024000127A006637000800093D00C7
:101060002DE9F84F040070D02078C04DC00749D05A
:101070006868C0F38100012807D06868C0F3810068
:10108000022809D16868C00306D52868800339D5CD
:1010900060680028E7D035E06068B0F5803F0BD08D
:1010A00010B1B0F5A02F11D0286820F4803028604E
:1010B000286820F4802002E0286840F4803028600E
:1010C000606890B1FFF78AFD06460AE0286840F4A0
:1010D00080202860F0E700BFFFF780FD801B6428B8
:1010E00073D828688003F7D50CE0FFF777FD064634
:1010F00005E000BFFFF772FD801B6428F0D8286868
:101100008003F7D420789A4E80074FF001094FF002
:10111000000839D5686810F00C0F07D06868C0F374
:101120008100022809D16868C00306D428688007B6
:1011300014D52069012808D110E02069B0B1C6F8A3
:101140000090FFF74BFD074605E00AE1FFF746FD7B
:10115000C01B0228C4D828688007F7D528686169B1
:1011600020F0F80040EAC10028600DE0C6F80080D9
:10117000FFF734FD074604E0FFF730FDC01B0228EF
:1011800023D828688007F7D4207800072CD5794821
:10119000A169D9B1C0F80090FFF720FD074604E02F
:1011A000FFF71CFDC01B02280FD8686A8007F7D51F
:1011B00071484FF4FA510068B0FBF1F0009000BFA5
:1011C0000098411E0091FAD20EE080E0C0F8008045
:1011D000FFF704FD074604E0FFF700FDC01B0228EF
:1011E00075D8686A8007F7D42078400760D5E86929
:1011F0000027C00008D4E86940F08050E861E86941
:10120000012700F0805000905C480168C90513D4A4
:101210000168834641F480710160FFF7DFFC82467C
:1012200006E000BFFFF7DAFCA0EB0A0064284ED806
:10123000DBF80000C005F5D5E06801280AD008B148
:10124000052813D0286A20F001002862286A20F0BF
:10125000040002E0286A40F001002862E06841F2E0
:10126000883B98B1FFF7BAFC82460BE0286A40F051
:1012700004002862EEE700BFFFF7B0FCA0EB0A0114
:1012800059455AD8286A8007F6D50CE0FFF7A6FC26
:10129000824605E0FFF7A2FCA0EB0A0159454CD8B5
:1012A000286A8007F6D41FB1E86920F08050E86111
:1012B000E06988B36968C1F38101022944D002283A
:1012C000C6F8608004D0FFF789FC044638E034E0BB
:1012D000FFF784FC074604E0FFF780FCC01B0228F0
:1012E0002BD828688001F7D4206AB0F5803F05D15B
:1012F0006868A16820F4003008436860D4E90801F8
:101300000843696821F4741108436860C6F8609066
:10131000FFF764FC044606E025E000BFFFF75EFC33
:10132000001B022809D828688001F7D51BE000BF00
:10133000FFF754FC001B022802D90320BDE8F88FF8
:1013400028688001F4D40EE00128F7D06868226A8A
:1013500000F48031914204D1616A00F47010884237
:1013600001D00120EAE70020E8E700000010024079
:1013700000004242800442420C1A002000700040EB
:1013800010B5401EB0F1807F01D3012010BD4FF099
:10139000E02460610F21601701F0C6FA0020A0610F
:1013A00007202061002010BD7047704770B590F88D
:1013B0003C20012A26D0012480F83C40022280F8FB
:1013C0003D2003685A689D6822F070060A6832431F
:1013D0005A600D4B02689A4208D0B2F1804F05D096
:1013E0000A4B9A4202D00A4B9A4204D1496825F02E
:1013F00080031943916080F83D40002180F83C1043
:10140000084670BD022070BD002C01400004004061
:101410000008004010B5040003D094F83D0010B15E
:1014200007E0012010BD002084F83C00204600F0B9
:101430001FF8022084F83D00211D206800F0BAFF4B
:10144000012084F8460084F83E0084F83F0084F8C8
:10145000400084F8410084F8420084F8430084F896
:10146000440084F8450084F83D00002010BD0000D1
:1014700008B501681048B1F1804F14D00F4A91426D
:1014800019D1C16941F00401C161C069002200F0B5
:101490000400009011461E20FFF70CFCBDE8084038
:1014A0001E20FFF7F9BBC16941F00101C161C069AC
:1014B00000F00100009008BD00100240000800404C
:1014C00090F83D10012901D001207047022180F8D9
:1014D0003D100168CA6842F00102CA6000680B4909
:1014E000884208D0B0F1804F05D00949884202D027
:1014F0000849884204D1816801F00701062903D018
:10150000016841F00101016000207047002C01409A
:10151000000400400008004070B5044690F83C000C
:101520000025012817D0012684F83C60022084F8A9
:101530003D002068826822F0770222F47F428260B8
:101540000868502838D00DDC20284FD005DC90B337
:10155000102811D14AE0022070BD302846D0402822
:101560000AD13BE060282FD070280DD0B0F5805F05
:1015700003D0B0F5005F12D0012584F83D60002053
:1015800084F83C00284670BDCB68D1E90121206871
:1015900000F059FF2068816841F0770109E0CB68CD
:1015A000D1E90121206800F04EFF2068816841F4F4
:1015B00080418160E1E719E0CA684968206800F06D
:1015C000F7FF5021206806E0CA684968206801F0EA
:1015D00000F86021206800F040FFCEE7CA68496843
:1015E000206800F0E5FF40212068F4E7226801460A
:1015F0001046F0E770472DE9F04104460068C668E0
:1016000005694FF00007A90713D5B10711D5F91ED9
:10161000016101202077206880698007204602D080
:10162000FFF7E8FF04E000F0A3F8204600F035F9EA
:101630002777680716D5700714D521686FF0040066
:101640000861022020772068806910F4407F2046DE
:1016500002D0FFF7CFFF04E000F08AF8204600F048
:101660001CF92777280715D5300713D521686FF0A7
:1016700008000861042020772068C06980072046A0
:1016800002D0FFF7B7FF04E000F072F8204600F048
:1016900004F92777E80616D5F00614D521686FF00F
:1016A00010000861082020772068C06910F4407F8E
:1016B000204602D0FFF79EFF04E000F059F82046D4
:1016C00000F0EBF82777E80708D0F00706D021688C
:1016D0006FF001000861204600F02EF9280608D5B9
:1016E000300606D521686FF0800008612046FFF7BC
:1016F0005BFE680608D5700606D521686FF04000CD
:101700000861204600F024F9A8060AD5B00608D5DD
:1017100021686FF0200008612046BDE8F041FFF726
:1017200044BEBDE8F081000000B585B00021009105
:101730000191029103910068B0F1804F11D10A48E4
:10174000816941F0040181618069694600F004000B
:101750000490012000900220019003900348FFF7BD
:1017600043F905B000BD0000001002400008014030
:10177000704770B5044690F83C0000260D460128DD
:101780000FD0012084F83C006AB1042A1DD0082A39
:101790002FD00C2A3FD00126002084F83C00304690
:1017A00070BD022070BD206800F060FE2068816975
:1017B00041F0080181612068816921F004018161A3
:1017C000206881692A69114311E0206800F076FEE3
:1017D0002068816941F4006181612068816921F498
:1017E00080618161206881692A6941EA0221816101
:1017F000D2E7206800F08EFE2068C16941F0080140
:10180000C1612068C16921F00401C1612068C1691A
:101810002A69114311E0206800F0A8FE2068C16920
:1018200041F40061C1612068C16921F48061C16136
:101830002068C1692A6941EA0221C161ACE710B59B
:10184000040003D094F83D0010B107E0012010BD62
:10185000002084F83C00204600F01EF8022084F8A6
:101860003D00211D206800F0A5FD012084F8460000
:1018700084F83E0084F83F0084F8400084F841007A
:1018800084F8420084F8430084F8440084F845005A
:1018900084F83D00002010BD7047704710B5044625
:1018A000022249B104290ED0082913D094F841002E
:1018B000012816D0012010BD94F83E000128F9D16E
:1018C00084F83E200FE094F83F000128F2D184F81C
:1018D0003F2008E094F840000128EBD184F8402034
:1018E00001E084F841200122206800F09FFD0F49AB
:1018F0002068884203D1426C42F40042426420686E
:10190000884208D0B0F1804F05D00949884202D002
:101910000849884204D1816801F00701062903D0F3
:10192000016841F001010160002010BD002C014060
:1019300000040040000800400349884203D10349E5
:101940000120C86048617047F41A0020DC190020AB
:101950007047704770470000F8B501680446086892
:10196000CA684B6910F00F0F4FF0000559D003F013
:10197000010602F49077374365D0C10705D0D10541
:1019800003D5616C41F001016164410705D5D907B8
:1019900003D0616C41F002016164810705D5D9076C
:1019A00003D0616C41F004016164010707D502F0C6
:1019B0002001314303D0616C41F008016164616C26
:1019C00000293AD0800604D5900602D5204600F0C2
:1019D00041FE20684069616CC0F38010090700D4A3
:1019E00060B3204600F00FFE20684069400621D514
:1019F0002068143050E8001F21F0400140E8001238
:101A0000002AF5D1E06BA8B16D494163E06BFEF7A8
:101A10008DFF002811D0E06B416B01B0BDE8F040B4
:101A2000084783060FD593060DD52046BDE8F8403C
:101A300000F010BE2046FFF78DFFF8BD2046FFF7EF
:101A400089FF6564F8BD266B2023012E7CD1C60674
:101A50007AD5D60678D508684868009048694FF06E
:101A60000206400640D5E16B086840680004000C9F
:101A7000E8D0A28D8242E5D9E085886920282DD062
:101A800020680C3050E8001F21F4807140E80012FB
:101A9000002AF5D12068143050E8001F21F0010120
:101AA00040E80012002AF5D12068143050E8001FE9
:101AB00021F0400140E80012002AF5D184F84230BC
:101AC000256320680C3050E8001F21F0100140E829
:101AD0000012002AF5D1E06BFEF704FF6663A08DCB
:101AE000E18D401A81B22AE0A08DE18D401A81B2C9
:101AF000E08D0028A6D00029A4D022680C3252E83C
:101B0000000F20F4907042E80007002FF5D1206804
:101B1000143050E8002F22F0010240E80027002F87
:101B2000F5D184F84230256320680C3050E8002F4E
:101B300022F0100240E80023002BF5D16663204616
:101B4000FFF707FFF8BDFFE705062BD5150629D5DA
:101B500094F841002128F5D1A068B0F5805F01D14B
:101B60002069B0B1206A411C216221680078486078
:101B7000E08C401E0004000CE084E3D12068C168C2
:101B800021F08001C1602068C16841F04001C1605E
:101B9000D8E7206A0088C0F308004860206A801CEB
:101BA0002062E5E74006CDD55006CBD5CA68204671
:101BB00022F04002CA6084F8413000F0F1F8C1E739
:101BC000F725000870B5040004D094F84100002502
:101BD00010B106E0012070BD84F84050204600F0AE
:101BE00023F8242084F841002068C16821F40051C2
:101BF000C160204600F090FD2068016921F4904109
:101C000001612068416921F02A0141612068C168B1
:101C100041F40051C1606564202084F8410084F8DB
:101C200042006563002070BD30B585B0002400948B
:101C30000194029403940068184988422CD11848F2
:101C4000816941F480418161816901F4804104919D
:101C5000816941F0040181618069124D00F0040046
:101C600004904FF400700090022001900320039034
:101C700069462846FEF7B8FE2815CDE900046946F6
:101C800028460294FEF7B0FE002211462520FFF7F9
:101C900011F82520FFF700F805B030BD00380140ED
:101CA000001002400008014090F84230202B01D083
:101CB0000220704721B11AB10023036300F088BDF0
:101CC0000120704700680A4988420FD109480A4B31
:101CD000816902785A54491C8161232A04D0014643
:101CE00001220648FFF7E0BF0121C16170470000F3
:101CF00000380140DC190020181A00203C1B00208D
:101D00002DE9F843044690F84100984616460D46E2
:101D1000202802D00220BDE8F88385B17EB10020E2
:101D20006064212084F84100FEF758FFA6848146B4
:101D3000E684A0682027B0F5805F02D003E0012090
:101D4000E9E7206910B12E4600250EE000260CE0E0
:101D50008021204600F057FDA8B9C6B116F8010B46
:101D600021684860E08C401EE084E08C4B464FF0D8
:101D70000002CDF800800028EAD14FF04001204653
:101D800000F041FD40B184F841700320C3E735F80D
:101D9000020BC0F30800E3E784F841700020BAE7C3
:101DA0007047FEE770B500242146002000F083F85C
:101DB0000025002000F0A7FD6D1CEDB2802DF8D3AA
:101DC000641CE4B2082CEFD370BD2DE9F0479846AF
:101DD0001746824600260C46DDF8209011E0214689
:101DE000504600F068F8554607E019F80600012152
:101DF000761C00F013F96D1CEDB2BD42F5D3641CE6
:101E0000E4B24445EBD3BDE8F08710B500204FF4B1
:101E10007A720021491C9142FCD3401C9042F8D3B5
:101E200000F070FAAE2000F05DFDD52000F05AFD04
:101E3000802000F057FDA82000F054FD3F2000F066
:101E400051FDD32000F04EFD002000F04BFD40205E
:101E500000F048FDA12000F045FDC82000F042FD43
:101E6000DA2000F03FFD122000F03CFD812000F060
:101E700039FDCF2000F036FDD92000F033FDF120F0
:101E800000F030FDDB2000F02DFD302000F02AFDB9
:101E9000A42000F027FDA62000F024FD8D2000F0F6
:101EA00021FD142000F01EFDAF2000F01BFDBDE859
:101EB0001040FFF777BF10B5044641F0B00000F0C6
:101EC00011FD102040EA141000F00CFD04F00F008A
:101ED000BDE8104000F006BD2DE9F04115460E4664
:101EE0000746FFF7E8FF0F48002400EB85150121A6
:101EF000285D00F093F8641CE4B2102CF7D3761C34
:101F0000F1B23846FFF7D7FF00242819012190F8D5
:101F1000200000F083F8641CE4B2102CF5D3BDE877
:101F2000F08100005A0C00202DE9F041203A0024F5
:101F30000D460746D6B27F2802D900278D1CEDB288
:101F400029463846FFF7B7FF0D4800EB061601217A
:101F5000305D00F063F8641CE4B2082CF7D36D1C0C
:101F6000E9B23846FFF7A7FF002430190121007AB3
:101F700000F054F8641CE4B2082CF6D3BDE8F081FC
:101F8000743100082DE9F04700261D469046894629
:101F90000746344625E0281B401E0A22C1B2012014
:101FA00000E05043491EC9B2FBD2B8FBF0F00A2151
:101FB000B0FBF1F201FB120026B9691E8C4201DA76
:101FC00030B101263030C2B207EBC400C0B203E02A
:101FD00007EBC400C0B220224946FFF7A5FF641CEE
:101FE000E4B2AC42D7D3BDE8F0872DE9F041174603
:101FF0000E46044600250CE031462046FFF794FFCC
:102000000834E4B2782C02D90024B61CF6B26D1C58
:10201000EDB27A5D002AEFD1BDE8F08109B100F0A0
:1020200072BC00F05FBC000070B501220B4D540281
:1020300021462846FEF7CDFD0122160231462846EC
:10204000FEF7C7FD002221462846FEF7C2FD3146B5
:102050002846BDE870400022FEF7BBBD000C0140E1
:1020600070B50A4D4FF40074002221462846FEF751
:10207000B0FD012211022846FEF7ABFD214628469D
:10208000BDE870400122FEF7A4BD0000000C014035
:102090003EB500211148009101910F4A0291026062
:1020A00081600173017501244FF460220461C261F3
:1020B0004160FEF75FFA08B1FEF7D8F906200094F8
:1020C000CDE9014069460548FEF7D2F9002801D064
:1020D000FEF7CCF93EBD0000002401407C1A002030
:1020E0002DE9F04786B0002434480094019402940E
:1020F0000394816941F010018161816901F010014F
:102100000491816941F020018161816901F0200120
:102110000491816941F004018161816901F0040148
:102120000491816941F0080181618069DFF8909034
:1021300000F008000490012204214846FEF749FD02
:10214000002238214846FEF744FDDFF878A04FF41E
:102150007348002241465046FEF73BFD012504200E
:10216000CDE900050326CDE9025669464846FEF74B
:102170003BFC38200227CDE90005CDE9024769463E
:102180004846FEF731FC4020CDE900046946484648
:102190000294FEF729FC009669465046CDE90145B8
:1021A000FEF722FCCDF800800397CDE90154694683
:1021B0005046FEF719FC06B0BDE8F087001002405B
:1021C00000080140000C014010B58EB000240794B7
:1021D000089409940A940B941C2168460C94FDF70A
:1021E000A8FF1E484FF0804101604721C0E901145B
:1021F0006321C0E903148461FFF70CF908B1FEF70D
:1022000035F94FF48050079007A91448FFF784F977
:1022100008B1FEF72BF91148FFF711FB08B1FEF7E3
:1022200025F90B940BA90D480C94FFF7BFF808B1E2
:10223000FEF71CF96020CDE9000402200290002284
:10224000694604940548FFF794FA08B1FEF70EF9C1
:102250000248FFF769FA0EB010BD0000AC1A00206A
:1022600010B586B00024174800940194029403949A
:10227000049413490594016041F61F41C0E901141B
:1022800042F20F71C0E903148461FFF7C3F808B18B
:10229000FEF7ECF84FF48050009069460948FFF7CC
:1022A0003BF908B1FEF7E2F8049404A90548059447
:1022B000FFF77CF8002801D0FEF7D8F806B010BD73
:1022C00000080040F41A00200C4810B50A490160CB
:1022D0004FF416514160002181600C22C160C0E9B9
:1022E00004128161C161FFF76DFC002803D0BDE8D5
:1022F0001040FEF7BBB810BD003801403C1B002069
:10230000FEE7FEE710B5064C012211022046FEF75B
:1023100060FC20460122BDE810405102FEF759BC86
:10232000000C014070477047FEF75EBC30B593B0BB
:1023300028216846FDF7FDFE14210AA8FDF7F9FEE5
:10234000002501200F9510951195010412958DE837
:10235000230004904FF4E010CDE908100224079404
:102360006846FEF77DFE08B172B6FEE70AA90F20A7
:1023700081E831004FF48060CDE90D0502210AA803
:10238000FEF792FD08B172B6FEE74FF400401190DF
:102390000F940FA8FEF712FD002801D072B6FEE7D9
:1023A00013B030BD704700000148FFF724B90000AA
:1023B000F41A0020F0B50268194B1A4C1A4D4FF070
:1023C0008047984205D0B84203D0A04201D0A8422D
:1023D00003D122F070064A683243984205D0B842D1
:1023E00003D0A04201D0A84203D122F44074CA68AD
:1023F00022434C6922F08002224302608A68C26252
:102400000A688262984201D1096901630121416130
:102410000169C90703D0016921F001010161F0BD23
:10242000002C0140000400400008004010B501F0FD
:102430001F030121046A99408C430462016A9A4097
:102440001143016210BD10B5846842EA032224F4EE
:102450007F440A432243826010BD826822F07002EA
:102460000A4342F0070181607047000030B5036AFB
:10247000026A22F0010202624268846924F0730554
:102480000C682C4323F002058B682B430A4DA842AD
:102490000BD123F00805CB6822F440722B434D6921
:1024A00023F0040315438A692A4342608461496822
:1024B0004163036230BD0000002C014030B5026A68
:1024C000036A23F010030362436884690D6824F4EF
:1024D000E64444EA05248D6822F0200242EA05120F
:1024E0000B4DA8420ED1CD6822F0800242EA0512BF
:1024F0004D6923F4406343EA85038D6922F040026D
:1025000043EA85034360846149688163026230BDA8
:10251000002C014030B5036A026A22F48072026224
:102520004268C46923F4007324F073050C682C43DB
:102530008D6843EA05230C4DA8420ED1CD6823F4E3
:10254000006343EA05234D6922F4405242EA051232
:102550008D6923F4806342EA05124260C4614968D0
:10256000C163036230BD0000002C014030B5046A35
:10257000026A22F4805202624268C3690D6823F441
:10258000E64343EA05238D6824F4005444EA053405
:10259000064DA84204D14D6922F4804242EA8512D8
:1025A0004260C36149680164046230BD002C01408F
:1025B00010B5036A046A24F001040462846924F0FB
:1025C000F00444EA021423F00A020A43846102621E
:1025D00010BD10B5036A046A24F010040462846913
:1025E00023F0A00324F4704444EA023243EA0111C8
:1025F0008261016210BD10B5406A0021C185C184AD
:10260000FFF7A8F910BD01680C3151E8002F22F442
:10261000907241E80023002BF5D10168143151E894
:10262000002F22F0010241E80023002BF5D1016BBD
:10263000012909D101680C3151E8002F22F0100264
:1026400041E80023002BF5D1202180F84210002121
:102650000163704708B590F84210222901D002208A
:1026600008BD82684FF480539A4201D1016921B1BB
:10267000816A9A421BD04AB10AE00268816A5268B4
:10268000C2F308020A80816A891C08E0026972B1FB
:102690000268526802F07F020A70816A491C8162F6
:1026A000C18D491E0904090CC18503D01BE00268D5
:1026B0005268F1E70168CA6822F02002CA60016826
:1026C000CA6822F48072CA6001684A6922F0010275
:1026D0004A61202180F8421000214163026B012AE7
:1026E00003D0FFF7EFFA002008BD016301680C3149
:1026F00051E8002F22F0100241E80023002BF5D111
:1027000001680A68D20602D50A6849680091818D7D
:10271000FFF71FF9E7E7000070B50446006801699C
:10272000E26821F44051114301612169A068084326
:10273000616908432168CA6841F20C639A43024305
:10274000CA6020684169A26921F440711143416166
:102750001E492068884202D1FEF74CFC01E0FEF7DA
:1027600039FC00EBC00101EB0012606864218000BD
:10277000B2FBF0F3B3FBF1F36FF018067343B2FB57
:10278000F0F5B2FBF0F605EB8305322303EB0515FC
:10279000B5FBF1F5B6FBF1F605F0F00505EB061516
:1027A000B2FBF0F6B2FBF0F0B0FBF1F06FF0180204
:1027B000504306EB800003EB0010B0FBF1F0216802
:1027C00000F00F002844886070BD00000038014010
:1027D00081628285C28500214164222180F84210F5
:1027E000016921B10168CA6842F48072CA60016857
:1027F0004A6942F001024A610068C16841F0200163
:10280000C160002070472DE9F843984617460D46F1
:102810000446089E24E0701C22D0FEF7DFF9A0EBEE
:102820000800B0421AD8CEB12068C168490717D550
:10283000802D15D0402D13D00168C94309070FD44E
:1028400001680025406800902046FFF7DCFE082064
:10285000606484F840500120BDE8F8830320FBE762
:102860002068006835EA000004D00020B842D2D0C9
:102870000020F1E70120F9E70148FFF76DB80000FB
:102880003C1B0020FEE700002DE9F047144E002419
:1028900007464FF080084FF40079B51528FA04F286
:1028A0003A4049463046FEF794F90122294630461F
:1028B000FEF78FF9002229463046FEF78AF9641C9C
:1028C000E4B2082CEAD3012229463046FEF781F90A
:1028D00029463046BDE8F0470022FEF77AB90000ED
:1028E000000C014010B50446FFF79EFB7820FFF76F
:1028F000CBFF0020FFF7C8FF2046FFF7C5FFBDE86C
:102900001040FFF7ADBB10B50446FFF78DFB7820F4
:10291000FFF7BAFF4020FFF7B7FF2046FFF7B4FFED
:10292000BDE81040FFF79CBB0907090E002804DB37
:1029300000F1E02080F80014704700F00F0000F173
:10294000E02080F8141D704702E008C8121F08C17B
:10295000002AFAD170477047002001E001C1121F20
:10296000002AFBD170470000F0B52848002401235D
:102970004268EAB101460227042503268968012A34
:1029800019D0022A27D0012A16D0032A29D0012AD9
:1029900014D0042A2DD0012A12D0052A30D0012AC1
:1029A00010D0062A03D1012901D1C0E90135F0BDBB
:1029B000C0E90134F0BD61B101290FD0022915D061
:1029C00003291BD00429F5D15FF00601C0E90114E9
:1029D000F0BD4760F0BD0429EAD0F0BDC0E9016454
:1029E000F0BD0329FCD143608360F0BDC0E9015410
:1029F000F0BD0429FCD1C0E90137F0BD0521E5E7B0
:102A00000129FAD1C0E90136F0BD0000DC1900202F
:102A1000FEF7F2F8FFF78AFCFFF762FBFFF738FBDF
:102A2000FFF71EFCFFF7D0FBFFF74EFCFFF7EDF9B9
:102A300000F048FAAD48FDF7F5FEAD48FEF740FD61
:102A4000FDF744FCFFF7C0FB0021AA48FEF726FF74
:102A5000FFF73AFC64230722A7A1A948FFF750F922
:102A60000122A849A648FFF71FF9DFF88882DFF89E
:102A70009892A64EA34CA64F00254FF4805A4FF4CF
:102A8000005B01213846FEF79FF848B9012138461E
:102A9000FEF79AF80028F9D0FFF766FF00F02EFB4A
:102AA00002213846FEF790F820BB02213846FEF797
:102AB0008BF80028F9D0A068401CA060616801294B
:102AC0000AD002290ED0032909D004290AD00529E9
:102AD0000BD0062909D00BE0052808DC08E0032804
:102AE00005DC05E0042802DC02E0012800DDA56029
:102AF00000F004FBE068012830D17C48E560FDF778
:102B000091FE64217948FDF7EFFD7848FDF72EFD31
:102B10006080FDF731FC40214846FEF755F802463B
:102B200020626068022819D1A06830B1012806D05F
:102B3000022809D003285FD10BE0327800E0B27898
:102B4000032306212A2007E0052306216288282086
:102B500002E0012306214020FFF714FA60680328F1
:102B600045D1A06820B101280ED0022879D12FE0EC
:102B7000012208214846FEF72CF801221021484680
:102B8000FEF727F801222EE06069012869D10122B1
:102B9000FF2148466561FEF71CF82069032804D030
:102BA000042805D0052806D00AE00022082104E008
:102BB0000022102101E0002220214846FEF709F8FA
:102BC0002069401C2061052811DD032020610EE0F2
:102BD000002208214846FDF7FCFF0022102148464C
:102BE000FDF7F7FF002220214846FDF7F2FF60685D
:102BF000042802D0052816D033E0A06830B101289F
:102C000008D0022808D003282BD10AE0D8F8000009
:102C1000456326E0142100E03221D8F8000041632A
:102C20001FE05021F9E7E06901281AD13948E56130
:102C3000FDF78AFA82B2642336493148FFF760F81B
:102C4000FFF7B0F80021334A0846FFF7CEF96421B8
:102C50003048FDF76EFA01222A492948A561FFF79D
:102C600023F8E06801287FF40CAF2048E560FDF709
:102C7000D9FD64211D48FDF737FD1C48FDF776FCA2
:102C80006080FDF779FB40214846FDF79DFF2062FB
:102C900060680628E7D130781E2801D9002200E0BC
:102CA000012251463846FDF794FFB0781E2801D91D
:102CB000002200E0012259463846FDF78AFF60886D
:102CC000B0F5FA6F01D9002200E001224FF48041F3
:102CD0003846FDF77EFF206A30B101224FF40041F3
:102CE0003846FDF776FFCCE60022F7E77C1A002095
:102CF000F41A0020AC1A002073746172740D0A007B
:102D00003C1B0020DC19002000080140111A0020A3
:102D1000000C0140181A002008B505281BD2DFE876
:102D200000F00305090B11000DA200E00EA2032123
:102D3000302003E00EA2FAE70FA2F8E7BDE8084052
:102D4000FFF753B90E480090062364220021282083
:102D5000FFF73BF808BD00210AA20846EEE7000095
:102D600050574D2D3000000050574D2D323000008F
:102D700050574D2D3530000050574D2D3830000044
:102D80005A0900206572726F7200000038B504465F
:102D90001A2200212820FFF79FF81B22002138204B
:102DA000FFF79AF81C2200214820FFF795F8062C1F
:102DB0006DD2DFE804F00314202A3D531D220621C2
:102DC0002820FFF789F81E2206213820FFF784F813
:102DD0001F2206214820FFF77FF8304853E02022C9
:102DE00006213820FFF778F82D4806234D22009061
:102DF0000221302019E02BA206213820FFF7F5F838
:102E000029480623A5220090F2E721220621282046
:102E1000FFF762F8222206214820FFF75DF82348D9
:102E2000009006235C2202212820FEF7CEFF38BD49
:102E3000232206211820FFF74FF8242206212820FC
:102E4000FFF74AF8252206213820FFF745F8262209
:102E500006214820FFF740F8154814E00E2206210D
:102E60002820FFF739F80F2206213820FFF734F821
:102E7000102206214820FFF72FF80EA20621582025
:102E8000FFF7B3F80C48062350220090B0E7BDE8E6
:102E90003840002109A20846FFF7A7B8200100200A
:102EA000A001002070776D004E0200202204002057
:102EB000F204002076780000720500206572726FBF
:102EC0007200000010B5082200211020FFF704F85E
:102ED000092200212020FEF7FFFF0A2200213020D6
:102EE000FEF7FAFF0B2200214020FEF7F5FF0C222F
:102EF00000215020FEF7F0FF0D2200216020FEF798
:102F0000EBFF0E2203213020FEF7E6FF0F22032104
:102F10004020FEF7E1FF102203215020FEF7DCFFE6
:102F2000122205210020FEF7D7FF132205211020D1
:102F3000FEF7D2FF142205212020FEF7CDFF152237
:102F400005213020FEF7C8FF162205214020FEF79C
:102F5000C3FF172205215020FEF7BEFF18220521CE
:102F60006020FEF7B9FF19220521BDE8104070204E
:102F7000FEF7B2BF08B5052818D2DFE800F0030558
:102F80000A0C0E000D4800E00D4806235822009060
:102F900007E00C48F9E70C48F7E70C4806236422E1
:102FA000009000212820FEF710FF08BD0021BDE899
:102FB000084007A20846FFF718B80000FA050020ED
:102FC0001A070020000000203A0800205A090020BB
:102FD0006572726F7200000008B540B101280DD013
:102FE0000021BDE808400AA20846FEF7FEBF0A48D5
:102FF00006236222002100901E2005E00748009071
:103000000623642200212820FEF7DFFE08BD000011
:103010006572726F72000000C20A00205A09002017
:1030200008B560B1012811D0022816D0032820D09D
:103030000021BDE8084013A20846FEF7D6BF2722AC
:1030400003213020FEF748FF28220CE0292203212B
:103050003020FEF741FF2A2205E0272203213020FD
:10306000FEF73AFF2B220321BDE808404020FEF77F
:1030700033BF064800900623642200212820FEF773
:10308000A4FE08BD6572726F720000005A0900202C
:1030900008B540B1012821D00021BDE8084014A2A4
:1030A0000846FEF7A2BF2C2203211020FEF714FFD2
:1030B0002D2203212020FEF70FFF2E220321302096
:1030C000FEF70AFF2F2203214020FEF705FF3022E2
:1030D0000321BDE808405020FEF7FEBE06480090E0
:1030E0000623642200212820FEF76FFE08BD0000A1
:1030F0006572726F720000005A09002010B51C4CF6
:103100006068012810D0022815D003281AD004289E
:103110001FD0052824D0062829D1FEF743FEA06839
:10312000BDE81040FFF7B4BFFEF73CFEA068BDE865
:103130001040FFF72BBEFEF735FEA068BDE810403B
:10314000FFF718BFFEF72EFEA068BDE81040FFF79E
:1031500067BFFEF727FEA068BDE81040FFF7DCBDA3
:10316000FEF720FEA068BDE81040FFF735BF10BD98
:10317000DC1900200000000000000000000000003A
:1031800000000000000000F8000000000000003314
:103190000000000000100C02100C020000000000F3
:1031A000000000000040C07840C0780000043F04E8
:1031B000043F040000708888FC08300000182020BC
:1031C000FF211E00F008F0806018000000310C03A1
:1031D0001E211E0000F00888700000001E21232C14
:1031E0001927211000120E0000000000000000004E
:1031F00000000000000000E01804020000000007CA
:103200001820400000020418E000000000402018D0
:1032100007000000404080F0804040000202010FA3
:103220000102020000000000E000000000010101B6
:103230000F0101010000000000000000009070007C
:10324000000000000000000000000000000101017B
:10325000010101000000000000000000003030000B
:103260000000000000000000C038040000601807E3
:103270000000000000E010080810E000000F10201F
:1032800020100F0000001010F800000000002020A7
:103290003F202000007008080808F00000302824B3
:1032A0002221300000300808088870000018202112
:1032B00021221C000000804030F800000006052498
:1032C000243F242400F8888888080800001920205A
:1032D00020110E0000E0108888900000000F1120DF
:1032E00020201F0000180808886818000000003E11
:1032F000010000000070880808887000001C22216E
:1033000021221C0000F008080810E0000001122231
:1033100022110F00000000C0C000000000000030BB
:10332000300000000000008000000000000000E00D
:10333000000000000000804020100800000102048E
:1033400008102000004040404040400000020202BF
:103350000202020000081020408000000020100837
:103360000402010000704808088870000000003066
:1033700037000000C030C828E810E00007182728F0
:103380002F2817000000C038E0000000203C230276
:103390000227382008F8888888700000203F202005
:1033A00020110E00C0300808080838000718202037
:1033B0002010080008F808080810E000203F20202E
:1033C00020100F0008F88888E8081000203F20200F
:1033D0002320180008F88888E8081000203F200003
:1033E00003000000C030080808380000071820203B
:1033F000221E020008F808000008F808203F2101FA
:1034000001213F20000808F8080800000020203FA4
:103410002020000000000808F8080800C080808014
:103420007F00000008F888C028180800203F20010D
:103430002638200008F8080000000000203F202067
:103440002020300008F8F800F8F80800203F013E7E
:10345000013F200008F830C00008F808203F200095
:1034600007183F00E01008080810E0000F102020A7
:1034700020100F0008F808080808F000203F21017C
:1034800001010000E01008080810E0000F102828D3
:1034900030504F0008F8888888887000203F20004E
:1034A000030C3020007088080808380000382021FC
:1034B00021221C00180808F8080818000000203F06
:1034C0002000000008F808000008F808001F20206D
:1034D00020201F000878880000C83808000007383E
:1034E0000E01000008F800F800F8080000033E0193
:1034F0003E030000081868808068180820302C03FC
:10350000032C30200838C800C83808000000203FCD
:103510002000000010080808C838080020382621BC
:1035200020201800000000FE020202000000007FC0
:1035300040404000000438C00000000000000001CE
:103540000638C00000020202FE00000000404040B9
:103550007F000000000004020204000000000000E0
:10356000000000000000000000000000808080805B
:103570008080808000020204000000000000000043
:10358000000000000000808080000000001924245A
:10359000123F200010F0008080000000003F11204A
:1035A00020110E000000008080800000000E11201D
:1035B00020201100000080808090F000001F20205B
:1035C00020103F200000808080800000001F242405
:1035D00024241700008080E0909020000020203FED
:1035E000202000000000808080808000006B949488
:1035F0009493600010F0008080800000203F210044
:1036000000203F2000809898000000000020203F0C
:1036100020200000000000809898000000C08080FA
:10362000807F000010F0000080808000203F240692
:1036300029302000001010F8000000000020203F7A
:10364000202000008080808080808000203F20003B
:103650003F20003F8080008080800000203F2100CC
:1036600000203F200000808080800000001F20207C
:1036700020201F00808000808000000080FF9120BB
:1036800020110E000000008080008000000E11203C
:103690002091FF80808080008080800020203F215A
:1036A00020000100000080808080800000332424FE
:1036B00024241900008080E0808000000000001FAA
:1036C000202010008080000000808000001F20204B
:1036D00020103F20808080008080800000030C301C
:1036E0000C0300008080008080008080010E300C80
:1036F0000738060100808080008080000020310EA5
:103700002E312000808080000080808000818678BB
:103710001806010000808080808080000021302C0D
:10372000222130000000000000FC02020000000026
:10373000013E404000000000FF00000000000000CB
:10374000FF0000000202FC000000000040403E01BB
:10375000000000000002010202040200000000005C
:1037600000000000010202030405060708090A0B15
:103770000C0D0E0F101001020203040506070809C4
:103780000A0B0C0D0E0F10100000000000000000CE
:1037900001020304060708090000000001020304F7
:1037A000C037000800000020181A00007C01000843
:1037B00084420008181A00207005000058290008EB
:1037C000D182E05530BCE0808580C0C0401240729C
:1037D000041260101EC04040E0C0C08177AB975F0C
:1037E000E6A8F8E6F37577377728684CD6BB7F3FB5
:1037F0008080778080E0602020290F1023C0E0E1E6
:1038000060E507F13CF6D1FCEB571F83159A24982D
:1038100004D4A2D62AC659834EFCE21B65C7411CBC
:10382000C0C0C03A413301013822C0E377A04F1C29
:103830006FFFF7F87FD5F2DDA0D1A20149916A9020
:103840004C8A94721FC7F86505870326711D04040E
:1038500007071138190119DED4693B260517EFED6A
:10386000AF4F6E3E14377A79E55CC18303010212D3
:10387000064C040203458501033F1DA3010719C33C
:103880002EF0F00C0CF301380ED3D33333F3F313D3
:10389000F3F33333D3D3122008F30C0CF0F0FFFF13
:1038A00018167E7F7F9F9F0703F3F330303330304D
:1038B000F3F303079F9F7F01211AFF01214815BFE2
:1038C000FFFFFCFCF0E0676786866686866767E038
:1038D000F0FCFC1A2808FFFF0F0F10106F01380EC4
:1038E0006D6D6E6E6F6F6C6F6F6E6E6D6D12266F9D
:1038F00010100F0F380BC0E07038180C0E060607BA
:10390000C8200B0706060E0C1C3870E0C04CFCFFEC
:1039100007C1617A800528080107FFFC073F78246A
:1039200021280D07FE86020E1E070704E47F0321EF
:103930001CE0783F5719F525070EFCF8331FF014EB
:10394000C0FC078EF8FC0E0703508D20F3FB9B0193
:10395000E3FBF3800F041D3D3D3D7DEDEDED7D3D31
:103960003D1D0CEA08011AF861710B19F8F81C0BDF
:1039700034FC0C38890BB10B12FFFF0B09581C09E2
:1039800078756C3F7F60010B457F7F1CDA031C0854
:103990000A21F0F8FCFEFF3F1F1F0F01180B1F1F2D
:1039A0003FFFFEFCF8F007FF0142C037183C7E7E67
:1039B0003C08463C3E7E3E3C69092A0809421C2AD6
:1039C000C02E1A0796190773F8802E3C7C7C7C3831
:1039D000411908337C181A3808633C101B80F82BF7
:1039E000523F080B1901070F1F3F7E7CF8F8F001CA
:1039F000B00AF8F87C7E3F1F0F07012A8001790D7D
:103A00001AC001C1D015041F3BF1F1313F3EFCCC7F
:103A10000C0C0C0E1F3B616060609810808081E789
:103A2000FF9C8C8D8F8F8C8C98F0E04C49970911FE
:103A30000181277C405858447C1A4CCE12081660ED
:103A4000301480202C202004171A4017411C300EFF
:103A50004D14111302801008E060282062EEE14648
:103A600090A002171239051961174844034A999822
:103A7000100A56C0070F0E0E6CEE27130181500876
:103A8000E2C30190406808273E425A5A423C10085F
:103A90001814050C14240C10080210182524010514
:103AA0002B080D760114C80980C06020302060C04A
:103AB000CA011A6BFFFF071B486C010922302CFF5B
:103AC000FEFE07061E92D3DADAD300131CC0E060B4
:103AD0003F9F80FFFFFF809F3F60C0860404061E5B
:103AE00010FF8118FE2D4901127C0320E77E001093
:103AF0001B03060C0D191B13131B1B090C060301DA
:103B0000032B80801BF0FC870C11FEFCF047DFE0EC
:103B1000F0FCFCF0E04D3B0307013A031F57FEFEAB
:103B2000FCF8E0C07AF8CE0312FEF88AC01F190133
:103B300023FCE01E01070F0F1F010C110F0F07CC14
:103B40008C0F3F7F2F04257F3F1F4A0101015745FE
:103B50008080C0803BFEFE0E490D01173808E0F85A
:103B6000FC3F0F03038B3BFFFF9C1F03070F3FFC32
:103B7000F8F901147C3FFFFF5079C1061880E0FF7F
:103B8000FF3F194F3F0E1C3C3838700108094E3872
:103B9000383C1C0E0F0703F3081029C0C0E0F0F0FA
:103BA000787C3C1E1F1FFFFFFEFC307D0F070703C4
:103BB000CA1AFF011AE0011AC0016B8080E981AFC7
:103BC000F0F8FCFEFF9F30C13D01010103011A071F
:103BD00001580C0F0F1F1F3E7C7CF8F0E0C0461907
:103BE0001D1809070F0E1E3C7878F0156916711A1A
:103BF000FC012C7C3878011AF01F29201A8032CE63
:103C0000071F7EFCF02A1965195E1E1F1E3C7C787A
:103C10005D29A929B4F9201A3E7B0618C0811FFF2F
:103C2000FC39282901021403297A1C7F0FFE5A1A35
:103C30007F040E29EFCF8F8F0F015D8F8FCFEF3B6A
:103C40002943299E196E2C0F1F3F9619B4C9D2D152
:103C5000201080C0E0E0F0F87C3E3F1F0F0703011A
:103C6000012940C9E2394D1F070F9FFEFCFC4E6B36
:103C7000C0804E193B2808F0F8FCFCFE9F0F3BC1AA
:103C8000091044392C5AFE65599BAB7C7E103A7E54
:103C90005C0917445A3CA2011E595B8B3C10441A24
:103CA0007F040A39F0012943171010F01F10F09813
:103CB00008808282E2928A86A5711F40221508162A
:103CC00061080315807F093E401808403011969026
:103CD000909104061198141350302A04013E448434
:103CE0007E06050A01121F0202021222C2060414F5
:103CF0000202FE1C081808380F1202024181403FE0
:103D0000802B4042013AFE0603114040100880809B
:103D10004020100C030F11030C10204080E0093DDF
:103D20004011000E13F808080CCA494848C8080892
:103D300008F832FF1A1F1C121F041840807F3BFF37
:103D400040010913E029014A7F07091122100910D7
:103D50009453321E3252101A7EC00A147E5D4A49B4
:103D600001298A0111100908CC4A49484ACC180F88
:103D7000117F88888482E03E1D12125292B90A1582
:103D80007E2024F801064A02010A12FE7E89CB1A1F
:103D9000804701101720102CE72424000812E22C81
:103DA00020BF2028E60010130101017F2111804F60
:103DB00020100F10204F80000C1422322AA6A2627D
:103DC0002111098101080E114222130B42827E0249
:103DD000020A122346801530AC6330080A1088C8E6
:103DE000A8998E88A8C8885E200967221212804090
:103DF000300F05123F404071080F108060F8070433
:103E0000E42424E40404FC0404C02122FF00081379
:103E10000F04040F40807F2B04043D3C25262442E0
:103E2000091040113D40201B02C00513020B106019
:103E300012E02FFF102002F292010B15F202802CEB
:103E4000404F44010B104F405F2342CC1E4454545A
:103E5000547F040A10442021147F20100F12FF15F4
:103E600015155595C0001011101010FF902098885E
:103E700088E98E8888A8981C024281370009128040
:103E8000844B28102847800810100484E45C44C444
:103E90002010E82724E4342CE040080E10017F10A5
:103EA000103F80601F09093F4989822B100CD93BC4
:103EB00045C6E00311140C38098040201E20404004
:103EC0007F200A1040E00010114030EF242480E4ED
:103ED0009C105454FF547C1008101001017F215194
:103EE0002618274445455F45454440144042CC3D93
:103EF000808888FF030911E1080D1140201F204030
:103F0000504C4340405F408049650B10E21CFA79F9
:103F1000C034100C030E11030C3040806011000CF3
:103F20001422322AA6A2622111098101000E124236
:103F300022130B42827E02020A122346162030AC64
:103F40006330080A1088C8A8998E88A8C8885E209F
:103F500009672212128040300F05123F4040712A3B
:103F600008013B09FA070212082C404041013A7F40
:103F700006031440403DFE9292920401141008087A
:103F8000080484621E010E1101FE02040461180A75
:103F90000202E22222F22E2222070413E20202008F
:103FA0000C14FF40407F4949497F4040FF080D11F4
:103FB0008060F807404848E85F484848A01A014137
:103FC000196607150B1222D20A06000E11FC04D442
:103FD000545454D4047F84C5360414886601080CF4
:103FE0001063828292AB8482C10224CF7F1B809EA9
:103FF000FB000A119EE0809EB2D2929E80100808BB
:1040000008F4949292F108081001F2929494F8083E
:104010004012701DFF201004012AFC050911DF2544
:1040200018070830041740807F1B3C24012AFF0535
:1040300002143C2B1F09013AFF0602141F3978397C
:10404000010215FC6B7F2001091582000A17F88810
:104050008C8A89888888F84BFF44010214FF1C4031
:1040600044C41B000912401010FF101010F0080F7C
:1040700011103C131014B840300E014080403F2016
:10408000193A000C119020984828090E2848A818C1
:10409000150242817F1F40404242427E040A104086
:1040A00080180A504E4848FF48484840BF0913A2AC
:1040B00010083E0202FF12221E05120F40807F08E8
:1040C000101180804020504844C344485020408014
:1040D00080E12A40FC2A7F050A10407F111809025E
:1040E000028272020202FE080D10423202026017C2
:1040F000814020100C030C13030C1060151060029B
:104100008C000B114464544D46445464C40420088C
:1041100004047E0180403E22FE04127E80E01620D0
:104120002020A0601BFF60C80213182E2010080674
:1041300001FA0712010204081010080D100404749B
:104140005454555654545474047F112F8483412180
:104150001D050106117D818185E315404042CC009B
:104160000B1440A09E8282829EA02020000D113F51
:10417000908840432C102846418080080E11809082
:1041800090484C57242424544C448020311EFF492D
:1041900049497F040214FF0810101010D0FF9050FE
:1041A00020504C434C50204040DF120312FF0809BE
:1041B00011414458414E60584720151060028C163A
:1041C000FE02F202FE1AF82A091040100A047E01CB
:1041D0008047300F1027041447807F1BF010012AFE
:1041E000FF050215F01B0F04012AFF050A120FC07C
:1041F0002980112BFE92010213FE29801E407E426F
:10420000427E020B16427EC0393F091740080B1050
:104210004448507F40407F50484440080F10404081
:10422000424458C0407F40C05048464020378080BC
:10423000402018071B3F400102127816FE424242FE
:10424000FE00081242A29E82A2C2BE27806F08080A
:1042500028CF4B2FC80801122809FC242424FC2550
:104260002624080A1004A0000F37308F80844C5594
:10427000252525554C8080803201821013127A72D8
:0442800048000000F2
:04000005080000ED02
:00000001FF
